{
  "_format": "hh-sol-artifact-1",
  "contractName": "MyNFT",
  "sourceName": "contracts/MyNFT.sol",
  "abi": [
    {
      "inputs": [],
      "stateMutability": "nonpayable",
      "type": "constructor"
    },
    {
      "anonymous": false,
      "inputs": [
        {
          "indexed": true,
          "internalType": "address",
          "name": "owner",
          "type": "address"
        },
        {
          "indexed": true,
          "internalType": "address",
          "name": "approved",
          "type": "address"
        },
        {
          "indexed": true,
          "internalType": "uint256",
          "name": "tokenId",
          "type": "uint256"
        }
      ],
      "name": "Approval",
      "type": "event"
    },
    {
      "anonymous": false,
      "inputs": [
        {
          "indexed": true,
          "internalType": "address",
          "name": "owner",
          "type": "address"
        },
        {
          "indexed": true,
          "internalType": "address",
          "name": "operator",
          "type": "address"
        },
        {
          "indexed": false,
          "internalType": "bool",
          "name": "approved",
          "type": "bool"
        }
      ],
      "name": "ApprovalForAll",
      "type": "event"
    },
    {
      "anonymous": false,
      "inputs": [
        {
          "indexed": true,
          "internalType": "address",
          "name": "previousOwner",
          "type": "address"
        },
        {
          "indexed": true,
          "internalType": "address",
          "name": "newOwner",
          "type": "address"
        }
      ],
      "name": "OwnershipTransferred",
      "type": "event"
    },
    {
      "anonymous": false,
      "inputs": [
        {
          "indexed": true,
          "internalType": "address",
          "name": "from",
          "type": "address"
        },
        {
          "indexed": true,
          "internalType": "address",
          "name": "to",
          "type": "address"
        },
        {
          "indexed": true,
          "internalType": "uint256",
          "name": "tokenId",
          "type": "uint256"
        }
      ],
      "name": "Transfer",
      "type": "event"
    },
    {
      "inputs": [
        {
          "internalType": "address",
          "name": "to",
          "type": "address"
        },
        {
          "internalType": "uint256",
          "name": "tokenId",
          "type": "uint256"
        }
      ],
      "name": "approve",
      "outputs": [],
      "stateMutability": "nonpayable",
      "type": "function"
    },
    {
      "inputs": [
        {
          "internalType": "address",
          "name": "owner",
          "type": "address"
        }
      ],
      "name": "balanceOf",
      "outputs": [
        {
          "internalType": "uint256",
          "name": "",
          "type": "uint256"
        }
      ],
      "stateMutability": "view",
      "type": "function"
    },
    {
      "inputs": [
        {
          "internalType": "uint256",
          "name": "tokenId",
          "type": "uint256"
        }
      ],
      "name": "burn",
      "outputs": [],
      "stateMutability": "nonpayable",
      "type": "function"
    },
    {
      "inputs": [
        {
          "internalType": "uint256",
          "name": "tokenId",
          "type": "uint256"
        }
      ],
      "name": "getApproved",
      "outputs": [
        {
          "internalType": "address",
          "name": "",
          "type": "address"
        }
      ],
      "stateMutability": "view",
      "type": "function"
    },
    {
      "inputs": [
        {
          "internalType": "address",
          "name": "owner",
          "type": "address"
        },
        {
          "internalType": "address",
          "name": "operator",
          "type": "address"
        }
      ],
      "name": "isApprovedForAll",
      "outputs": [
        {
          "internalType": "bool",
          "name": "",
          "type": "bool"
        }
      ],
      "stateMutability": "view",
      "type": "function"
    },
    {
      "inputs": [],
      "name": "name",
      "outputs": [
        {
          "internalType": "string",
          "name": "",
          "type": "string"
        }
      ],
      "stateMutability": "view",
      "type": "function"
    },
    {
      "inputs": [],
      "name": "owner",
      "outputs": [
        {
          "internalType": "address",
          "name": "",
          "type": "address"
        }
      ],
      "stateMutability": "view",
      "type": "function"
    },
    {
      "inputs": [
        {
          "internalType": "uint256",
          "name": "tokenId",
          "type": "uint256"
        }
      ],
      "name": "ownerOf",
      "outputs": [
        {
          "internalType": "address",
          "name": "",
          "type": "address"
        }
      ],
      "stateMutability": "view",
      "type": "function"
    },
    {
      "inputs": [],
      "name": "renounceOwnership",
      "outputs": [],
      "stateMutability": "nonpayable",
      "type": "function"
    },
    {
      "inputs": [
        {
          "internalType": "address",
          "name": "to",
          "type": "address"
        },
        {
          "internalType": "string",
          "name": "uri",
          "type": "string"
        }
      ],
      "name": "safeMint",
      "outputs": [],
      "stateMutability": "nonpayable",
      "type": "function"
    },
    {
      "inputs": [
        {
          "internalType": "address",
          "name": "from",
          "type": "address"
        },
        {
          "internalType": "address",
          "name": "to",
          "type": "address"
        },
        {
          "internalType": "uint256",
          "name": "tokenId",
          "type": "uint256"
        }
      ],
      "name": "safeTransferFrom",
      "outputs": [],
      "stateMutability": "nonpayable",
      "type": "function"
    },
    {
      "inputs": [
        {
          "internalType": "address",
          "name": "from",
          "type": "address"
        },
        {
          "internalType": "address",
          "name": "to",
          "type": "address"
        },
        {
          "internalType": "uint256",
          "name": "tokenId",
          "type": "uint256"
        },
        {
          "internalType": "bytes",
          "name": "data",
          "type": "bytes"
        }
      ],
      "name": "safeTransferFrom",
      "outputs": [],
      "stateMutability": "nonpayable",
      "type": "function"
    },
    {
      "inputs": [
        {
          "internalType": "address",
          "name": "operator",
          "type": "address"
        },
        {
          "internalType": "bool",
          "name": "approved",
          "type": "bool"
        }
      ],
      "name": "setApprovalForAll",
      "outputs": [],
      "stateMutability": "nonpayable",
      "type": "function"
    },
    {
      "inputs": [
        {
          "internalType": "bytes4",
          "name": "interfaceId",
          "type": "bytes4"
        }
      ],
      "name": "supportsInterface",
      "outputs": [
        {
          "internalType": "bool",
          "name": "",
          "type": "bool"
        }
      ],
      "stateMutability": "view",
      "type": "function"
    },
    {
      "inputs": [],
      "name": "symbol",
      "outputs": [
        {
          "internalType": "string",
          "name": "",
          "type": "string"
        }
      ],
      "stateMutability": "view",
      "type": "function"
    },
    {
      "inputs": [
        {
          "internalType": "uint256",
          "name": "index",
          "type": "uint256"
        }
      ],
      "name": "tokenByIndex",
      "outputs": [
        {
          "internalType": "uint256",
          "name": "",
          "type": "uint256"
        }
      ],
      "stateMutability": "view",
      "type": "function"
    },
    {
      "inputs": [
        {
          "internalType": "address",
          "name": "owner",
          "type": "address"
        },
        {
          "internalType": "uint256",
          "name": "index",
          "type": "uint256"
        }
      ],
      "name": "tokenOfOwnerByIndex",
      "outputs": [
        {
          "internalType": "uint256",
          "name": "",
          "type": "uint256"
        }
      ],
      "stateMutability": "view",
      "type": "function"
    },
    {
      "inputs": [
        {
          "internalType": "uint256",
          "name": "tokenId",
          "type": "uint256"
        }
      ],
      "name": "tokenURI",
      "outputs": [
        {
          "internalType": "string",
          "name": "",
          "type": "string"
        }
      ],
      "stateMutability": "view",
      "type": "function"
    },
    {
      "inputs": [],
      "name": "totalSupply",
      "outputs": [
        {
          "internalType": "uint256",
          "name": "",
          "type": "uint256"
        }
      ],
      "stateMutability": "view",
      "type": "function"
    },
    {
      "inputs": [
        {
          "internalType": "address",
          "name": "from",
          "type": "address"
        },
        {
          "internalType": "address",
          "name": "to",
          "type": "address"
        },
        {
          "internalType": "uint256",
          "name": "tokenId",
          "type": "uint256"
        }
      ],
      "name": "transferFrom",
      "outputs": [],
      "stateMutability": "nonpayable",
      "type": "function"
    },
    {
      "inputs": [
        {
          "internalType": "address",
          "name": "newOwner",
          "type": "address"
        }
      ],
      "name": "transferOwnership",
      "outputs": [],
      "stateMutability": "nonpayable",
      "type": "function"
    }
  ],
  "bytecode": "0x60806040523480156200001157600080fd5b506040518060400160405280600e81526020017f4166726963615072696e744e46540000000000000000000000000000000000008152506040518060400160405280600581526020017f41504e4654000000000000000000000000000000000000000000000000000000815250816000908051906020019062000096929190620001a6565b508060019080519060200190620000af929190620001a6565b505050620000d2620000c6620000d860201b60201c565b620000e060201b60201c565b620002bb565b600033905090565b6000600b60009054906101000a900473ffffffffffffffffffffffffffffffffffffffff16905081600b60006101000a81548173ffffffffffffffffffffffffffffffffffffffff021916908373ffffffffffffffffffffffffffffffffffffffff1602179055508173ffffffffffffffffffffffffffffffffffffffff168173ffffffffffffffffffffffffffffffffffffffff167f8be0079c531659141344cd1fd0a4f28419497f9722a3daafe3b4186f6b6457e060405160405180910390a35050565b828054620001b49062000285565b90600052602060002090601f016020900481019282620001d8576000855562000224565b82601f10620001f357805160ff191683800117855562000224565b8280016001018555821562000224579182015b828111156200022357825182559160200191906001019062000206565b5b50905062000233919062000237565b5090565b5b808211156200025257600081600090555060010162000238565b5090565b7f4e487b7100000000000000000000000000000000000000000000000000000000600052602260045260246000fd5b600060028204905060018216806200029e57607f821691505b60208210811415620002b557620002b462000256565b5b50919050565b6139f080620002cb6000396000f3fe608060405234801561001057600080fd5b50600436106101375760003560e01c80636352211e116100b8578063a22cb4651161007c578063a22cb4651461034e578063b88d4fde1461036a578063c87b56dd14610386578063d204c45e146103b6578063e985e9c5146103d2578063f2fde38b1461040257610137565b80636352211e146102a857806370a08231146102d8578063715018a6146103085780638da5cb5b1461031257806395d89b411461033057610137565b806323b872dd116100ff57806323b872dd146101f45780632f745c591461021057806342842e0e1461024057806342966c681461025c5780634f6ccce71461027857610137565b806301ffc9a71461013c57806306fdde031461016c578063081812fc1461018a578063095ea7b3146101ba57806318160ddd146101d6575b600080fd5b61015660048036038101906101519190612744565b61041e565b604051610163919061278c565b60405180910390f35b610174610430565b6040516101819190612840565b60405180910390f35b6101a4600480360381019061019f9190612898565b6104c2565b6040516101b19190612906565b60405180910390f35b6101d460048036038101906101cf919061294d565b610508565b005b6101de610620565b6040516101eb919061299c565b60405180910390f35b61020e600480360381019061020991906129b7565b61062d565b005b61022a6004803603810190610225919061294d565b61068d565b604051610237919061299c565b60405180910390f35b61025a600480360381019061025591906129b7565b610732565b005b61027660048036038101906102719190612898565b610752565b005b610292600480360381019061028d9190612898565b6107ae565b60405161029f919061299c565b60405180910390f35b6102c260048036038101906102bd9190612898565b61081f565b6040516102cf9190612906565b60405180910390f35b6102f260048036038101906102ed9190612a0a565b6108a6565b6040516102ff919061299c565b60405180910390f35b61031061095e565b005b61031a610972565b6040516103279190612906565b60405180910390f35b61033861099c565b6040516103459190612840565b60405180910390f35b61036860048036038101906103639190612a63565b610a2e565b005b610384600480360381019061037f9190612bd8565b610a44565b005b6103a0600480360381019061039b9190612898565b610aa6565b6040516103ad9190612840565b60405180910390f35b6103d060048036038101906103cb9190612cfc565b610ab8565b005b6103ec60048036038101906103e79190612d58565b610af1565b6040516103f9919061278c565b60405180910390f35b61041c60048036038101906104179190612a0a565b610b85565b005b600061042982610c09565b9050919050565b60606000805461043f90612dc7565b80601f016020809104026020016040519081016040528092919081815260200182805461046b90612dc7565b80156104b85780601f1061048d576101008083540402835291602001916104b8565b820191906000526020600020905b81548152906001019060200180831161049b57829003601f168201915b5050505050905090565b60006104cd82610c83565b6004600083815260200190815260200160002060009054906101000a900473ffffffffffffffffffffffffffffffffffffffff169050919050565b60006105138261081f565b90508073ffffffffffffffffffffffffffffffffffffffff168373ffffffffffffffffffffffffffffffffffffffff161415610584576040517f08c379a000000000000000000000000000000000000000000000000000000000815260040161057b90612e6b565b60405180910390fd5b8073ffffffffffffffffffffffffffffffffffffffff166105a3610cce565b73ffffffffffffffffffffffffffffffffffffffff1614806105d257506105d1816105cc610cce565b610af1565b5b610611576040517f08c379a000000000000000000000000000000000000000000000000000000000815260040161060890612efd565b60405180910390fd5b61061b8383610cd6565b505050565b6000600880549050905090565b61063e610638610cce565b82610d8f565b61067d576040517f08c379a000000000000000000000000000000000000000000000000000000000815260040161067490612f8f565b60405180910390fd5b610688838383610e24565b505050565b6000610698836108a6565b82106106d9576040517f08c379a00000000000000000000000000000000000000000000000000000000081526004016106d090613021565b60405180910390fd5b600660008473ffffffffffffffffffffffffffffffffffffffff1673ffffffffffffffffffffffffffffffffffffffff168152602001908152602001600020600083815260200190815260200160002054905092915050565b61074d83838360405180602001604052806000815250610a44565b505050565b61076361075d610cce565b82610d8f565b6107a2576040517f08c379a000000000000000000000000000000000000000000000000000000000815260040161079990612f8f565b60405180910390fd5b6107ab8161111e565b50565b60006107b8610620565b82106107f9576040517f08c379a00000000000000000000000000000000000000000000000000000000081526004016107f0906130b3565b60405180910390fd5b6008828154811061080d5761080c6130d3565b5b90600052602060002001549050919050565b60008061082b8361112a565b9050600073ffffffffffffffffffffffffffffffffffffffff168173ffffffffffffffffffffffffffffffffffffffff16141561089d576040517f08c379a00000000000000000000000000000000000000000000000000000000081526004016108949061314e565b60405180910390fd5b80915050919050565b60008073ffffffffffffffffffffffffffffffffffffffff168273ffffffffffffffffffffffffffffffffffffffff161415610917576040517f08c379a000000000000000000000000000000000000000000000000000000000815260040161090e906131e0565b60405180910390fd5b600360008373ffffffffffffffffffffffffffffffffffffffff1673ffffffffffffffffffffffffffffffffffffffff168152602001908152602001600020549050919050565b610966611167565b61097060006111e5565b565b6000600b60009054906101000a900473ffffffffffffffffffffffffffffffffffffffff16905090565b6060600180546109ab90612dc7565b80601f01602080910402602001604051908101604052809291908181526020018280546109d790612dc7565b8015610a245780601f106109f957610100808354040283529160200191610a24565b820191906000526020600020905b815481529060010190602001808311610a0757829003601f168201915b5050505050905090565b610a40610a39610cce565b83836112ab565b5050565b610a55610a4f610cce565b83610d8f565b610a94576040517f08c379a0000000000000000000000000000000000000000000000000000000008152600401610a8b90612f8f565b60405180910390fd5b610aa084848484611418565b50505050565b6060610ab182611474565b9050919050565b610ac0611167565b6000610acc600c611587565b9050610ad8600c611595565b610ae283826115ab565b610aec81836115c9565b505050565b6000600560008473ffffffffffffffffffffffffffffffffffffffff1673ffffffffffffffffffffffffffffffffffffffff16815260200190815260200160002060008373ffffffffffffffffffffffffffffffffffffffff1673ffffffffffffffffffffffffffffffffffffffff16815260200190815260200160002060009054906101000a900460ff16905092915050565b610b8d611167565b600073ffffffffffffffffffffffffffffffffffffffff168173ffffffffffffffffffffffffffffffffffffffff161415610bfd576040517f08c379a0000000000000000000000000000000000000000000000000000000008152600401610bf490613272565b60405180910390fd5b610c06816111e5565b50565b60007f780e9d63000000000000000000000000000000000000000000000000000000007bffffffffffffffffffffffffffffffffffffffffffffffffffffffff1916827bffffffffffffffffffffffffffffffffffffffffffffffffffffffff19161480610c7c5750610c7b8261163d565b5b9050919050565b610c8c8161171f565b610ccb576040517f08c379a0000000000000000000000000000000000000000000000000000000008152600401610cc29061314e565b60405180910390fd5b50565b600033905090565b816004600083815260200190815260200160002060006101000a81548173ffffffffffffffffffffffffffffffffffffffff021916908373ffffffffffffffffffffffffffffffffffffffff160217905550808273ffffffffffffffffffffffffffffffffffffffff16610d498361081f565b73ffffffffffffffffffffffffffffffffffffffff167f8c5be1e5ebec7d5bd14f71427d1e84f3dd0314c0f7b2291e5b200ac8c7c3b92560405160405180910390a45050565b600080610d9b8361081f565b90508073ffffffffffffffffffffffffffffffffffffffff168473ffffffffffffffffffffffffffffffffffffffff161480610ddd5750610ddc8185610af1565b5b80610e1b57508373ffffffffffffffffffffffffffffffffffffffff16610e03846104c2565b73ffffffffffffffffffffffffffffffffffffffff16145b91505092915050565b8273ffffffffffffffffffffffffffffffffffffffff16610e448261081f565b73ffffffffffffffffffffffffffffffffffffffff1614610e9a576040517f08c379a0000000000000000000000000000000000000000000000000000000008152600401610e9190613304565b60405180910390fd5b600073ffffffffffffffffffffffffffffffffffffffff168273ffffffffffffffffffffffffffffffffffffffff161415610f0a576040517f08c379a0000000000000000000000000000000000000000000000000000000008152600401610f0190613396565b60405180910390fd5b610f178383836001611760565b8273ffffffffffffffffffffffffffffffffffffffff16610f378261081f565b73ffffffffffffffffffffffffffffffffffffffff1614610f8d576040517f08c379a0000000000000000000000000000000000000000000000000000000008152600401610f8490613304565b60405180910390fd5b6004600082815260200190815260200160002060006101000a81549073ffffffffffffffffffffffffffffffffffffffff02191690556001600360008573ffffffffffffffffffffffffffffffffffffffff1673ffffffffffffffffffffffffffffffffffffffff168152602001908152602001600020600082825403925050819055506001600360008473ffffffffffffffffffffffffffffffffffffffff1673ffffffffffffffffffffffffffffffffffffffff16815260200190815260200160002060008282540192505081905550816002600083815260200190815260200160002060006101000a81548173ffffffffffffffffffffffffffffffffffffffff021916908373ffffffffffffffffffffffffffffffffffffffff160217905550808273ffffffffffffffffffffffffffffffffffffffff168473ffffffffffffffffffffffffffffffffffffffff167fddf252ad1be2c89b69c2b068fc378daa952ba7f163c4a11628f55a4df523b3ef60405160405180910390a46111198383836001611772565b505050565b61112781611778565b50565b60006002600083815260200190815260200160002060009054906101000a900473ffffffffffffffffffffffffffffffffffffffff169050919050565b61116f610cce565b73ffffffffffffffffffffffffffffffffffffffff1661118d610972565b73ffffffffffffffffffffffffffffffffffffffff16146111e3576040517f08c379a00000000000000000000000000000000000000000000000000000000081526004016111da90613402565b60405180910390fd5b565b6000600b60009054906101000a900473ffffffffffffffffffffffffffffffffffffffff16905081600b60006101000a81548173ffffffffffffffffffffffffffffffffffffffff021916908373ffffffffffffffffffffffffffffffffffffffff1602179055508173ffffffffffffffffffffffffffffffffffffffff168173ffffffffffffffffffffffffffffffffffffffff167f8be0079c531659141344cd1fd0a4f28419497f9722a3daafe3b4186f6b6457e060405160405180910390a35050565b8173ffffffffffffffffffffffffffffffffffffffff168373ffffffffffffffffffffffffffffffffffffffff16141561131a576040517f08c379a00000000000000000000000000000000000000000000000000000000081526004016113119061346e565b60405180910390fd5b80600560008573ffffffffffffffffffffffffffffffffffffffff1673ffffffffffffffffffffffffffffffffffffffff16815260200190815260200160002060008473ffffffffffffffffffffffffffffffffffffffff1673ffffffffffffffffffffffffffffffffffffffff16815260200190815260200160002060006101000a81548160ff0219169083151502179055508173ffffffffffffffffffffffffffffffffffffffff168373ffffffffffffffffffffffffffffffffffffffff167f17307eab39ab6107e8899845ad3d59bd9653f200f220920489ca2b5937696c318360405161140b919061278c565b60405180910390a3505050565b611423848484610e24565b61142f848484846117cb565b61146e576040517f08c379a000000000000000000000000000000000000000000000000000000000815260040161146590613500565b60405180910390fd5b50505050565b606061147f82610c83565b6000600a6000848152602001908152602001600020805461149f90612dc7565b80601f01602080910402602001604051908101604052809291908181526020018280546114cb90612dc7565b80156115185780601f106114ed57610100808354040283529160200191611518565b820191906000526020600020905b8154815290600101906020018083116114fb57829003601f168201915b505050505090506000611529611962565b905060008151141561153f578192505050611582565b60008251111561157457808260405160200161155c92919061355c565b60405160208183030381529060405292505050611582565b61157d84611982565b925050505b919050565b600081600001549050919050565b6001816000016000828254019250508190555050565b6115c58282604051806020016040528060008152506119ea565b5050565b6115d28261171f565b611611576040517f08c379a0000000000000000000000000000000000000000000000000000000008152600401611608906135f2565b60405180910390fd5b80600a600084815260200190815260200160002090805190602001906116389291906125f5565b505050565b60007f80ac58cd000000000000000000000000000000000000000000000000000000007bffffffffffffffffffffffffffffffffffffffffffffffffffffffff1916827bffffffffffffffffffffffffffffffffffffffffffffffffffffffff1916148061170857507f5b5e139f000000000000000000000000000000000000000000000000000000007bffffffffffffffffffffffffffffffffffffffffffffffffffffffff1916827bffffffffffffffffffffffffffffffffffffffffffffffffffffffff1916145b80611718575061171782611a45565b5b9050919050565b60008073ffffffffffffffffffffffffffffffffffffffff166117418361112a565b73ffffffffffffffffffffffffffffffffffffffff1614159050919050565b61176c84848484611aaf565b50505050565b50505050565b61178181611c0f565b6000600a600083815260200190815260200160002080546117a190612dc7565b9050146117c857600a600082815260200190815260200160002060006117c7919061267b565b5b50565b60006117ec8473ffffffffffffffffffffffffffffffffffffffff16611d5d565b15611955578373ffffffffffffffffffffffffffffffffffffffff1663150b7a02611815610cce565b8786866040518563ffffffff1660e01b81526004016118379493929190613667565b602060405180830381600087803b15801561185157600080fd5b505af192505050801561188257506040513d601f19601f8201168201806040525081019061187f91906136c8565b60015b611905573d80600081146118b2576040519150601f19603f3d011682016040523d82523d6000602084013e6118b7565b606091505b506000815114156118fd576040517f08c379a00000000000000000000000000000000000000000000000000000000081526004016118f490613500565b60405180910390fd5b805181602001fd5b63150b7a0260e01b7bffffffffffffffffffffffffffffffffffffffffffffffffffffffff1916817bffffffffffffffffffffffffffffffffffffffffffffffffffffffff19161491505061195a565b600190505b949350505050565b606060405180608001604052806044815260200161397760449139905090565b606061198d82610c83565b6000611997611962565b905060008151116119b757604051806020016040528060008152506119e2565b806119c184611d80565b6040516020016119d292919061355c565b6040516020818303038152906040525b915050919050565b6119f48383611e58565b611a0160008484846117cb565b611a40576040517f08c379a0000000000000000000000000000000000000000000000000000000008152600401611a3790613500565b60405180910390fd5b505050565b60007f01ffc9a7000000000000000000000000000000000000000000000000000000007bffffffffffffffffffffffffffffffffffffffffffffffffffffffff1916827bffffffffffffffffffffffffffffffffffffffffffffffffffffffff1916149050919050565b611abb84848484612076565b6001811115611aff576040517f08c379a0000000000000000000000000000000000000000000000000000000008152600401611af690613767565b60405180910390fd5b6000829050600073ffffffffffffffffffffffffffffffffffffffff168573ffffffffffffffffffffffffffffffffffffffff161415611b4757611b428161219c565b611b86565b8373ffffffffffffffffffffffffffffffffffffffff168573ffffffffffffffffffffffffffffffffffffffff1614611b8557611b8485826121e5565b5b5b600073ffffffffffffffffffffffffffffffffffffffff168473ffffffffffffffffffffffffffffffffffffffff161415611bc957611bc481612352565b611c08565b8473ffffffffffffffffffffffffffffffffffffffff168473ffffffffffffffffffffffffffffffffffffffff1614611c0757611c068482612423565b5b5b5050505050565b6000611c1a8261081f565b9050611c2a816000846001611760565b611c338261081f565b90506004600083815260200190815260200160002060006101000a81549073ffffffffffffffffffffffffffffffffffffffff02191690556001600360008373ffffffffffffffffffffffffffffffffffffffff1673ffffffffffffffffffffffffffffffffffffffff168152602001908152602001600020600082825403925050819055506002600083815260200190815260200160002060006101000a81549073ffffffffffffffffffffffffffffffffffffffff021916905581600073ffffffffffffffffffffffffffffffffffffffff168273ffffffffffffffffffffffffffffffffffffffff167fddf252ad1be2c89b69c2b068fc378daa952ba7f163c4a11628f55a4df523b3ef60405160405180910390a4611d59816000846001611772565b5050565b6000808273ffffffffffffffffffffffffffffffffffffffff163b119050919050565b606060006001611d8f846124a2565b01905060008167ffffffffffffffff811115611dae57611dad612aad565b5b6040519080825280601f01601f191660200182016040528015611de05781602001600182028036833780820191505090505b509050600082602001820190505b600115611e4d578080600190039150507f3031323334353637383961626364656600000000000000000000000000000000600a86061a8153600a8581611e3757611e36613787565b5b0494506000851415611e4857611e4d565b611dee565b819350505050919050565b600073ffffffffffffffffffffffffffffffffffffffff168273ffffffffffffffffffffffffffffffffffffffff161415611ec8576040517f08c379a0000000000000000000000000000000000000000000000000000000008152600401611ebf90613802565b60405180910390fd5b611ed18161171f565b15611f11576040517f08c379a0000000000000000000000000000000000000000000000000000000008152600401611f089061386e565b60405180910390fd5b611f1f600083836001611760565b611f288161171f565b15611f68576040517f08c379a0000000000000000000000000000000000000000000000000000000008152600401611f5f9061386e565b60405180910390fd5b6001600360008473ffffffffffffffffffffffffffffffffffffffff1673ffffffffffffffffffffffffffffffffffffffff16815260200190815260200160002060008282540192505081905550816002600083815260200190815260200160002060006101000a81548173ffffffffffffffffffffffffffffffffffffffff021916908373ffffffffffffffffffffffffffffffffffffffff160217905550808273ffffffffffffffffffffffffffffffffffffffff16600073ffffffffffffffffffffffffffffffffffffffff167fddf252ad1be2c89b69c2b068fc378daa952ba7f163c4a11628f55a4df523b3ef60405160405180910390a4612072600083836001611772565b5050565b600181111561219657600073ffffffffffffffffffffffffffffffffffffffff168473ffffffffffffffffffffffffffffffffffffffff161461210a5780600360008673ffffffffffffffffffffffffffffffffffffffff1673ffffffffffffffffffffffffffffffffffffffff168152602001908152602001600020600082825461210291906138bd565b925050819055505b600073ffffffffffffffffffffffffffffffffffffffff168373ffffffffffffffffffffffffffffffffffffffff16146121955780600360008573ffffffffffffffffffffffffffffffffffffffff1673ffffffffffffffffffffffffffffffffffffffff168152602001908152602001600020600082825461218d91906138f1565b925050819055505b5b50505050565b6008805490506009600083815260200190815260200160002081905550600881908060018154018082558091505060019003906000526020600020016000909190919091505550565b600060016121f2846108a6565b6121fc91906138bd565b90506000600760008481526020019081526020016000205490508181146122e1576000600660008673ffffffffffffffffffffffffffffffffffffffff1673ffffffffffffffffffffffffffffffffffffffff168152602001908152602001600020600084815260200190815260200160002054905080600660008773ffffffffffffffffffffffffffffffffffffffff1673ffffffffffffffffffffffffffffffffffffffff168152602001908152602001600020600084815260200190815260200160002081905550816007600083815260200190815260200160002081905550505b6007600084815260200190815260200160002060009055600660008573ffffffffffffffffffffffffffffffffffffffff1673ffffffffffffffffffffffffffffffffffffffff16815260200190815260200160002060008381526020019081526020016000206000905550505050565b6000600160088054905061236691906138bd565b9050600060096000848152602001908152602001600020549050600060088381548110612396576123956130d3565b5b9060005260206000200154905080600883815481106123b8576123b76130d3565b5b90600052602060002001819055508160096000838152602001908152602001600020819055506009600085815260200190815260200160002060009055600880548061240757612406613947565b5b6001900381819060005260206000200160009055905550505050565b600061242e836108a6565b905081600660008573ffffffffffffffffffffffffffffffffffffffff1673ffffffffffffffffffffffffffffffffffffffff168152602001908152602001600020600083815260200190815260200160002081905550806007600084815260200190815260200160002081905550505050565b600080600090507a184f03e93ff9f4daa797ed6e38ed64bf6a1f0100000000000000008310612500577a184f03e93ff9f4daa797ed6e38ed64bf6a1f01000000000000000083816124f6576124f5613787565b5b0492506040810190505b6d04ee2d6d415b85acef8100000000831061253d576d04ee2d6d415b85acef8100000000838161253357612532613787565b5b0492506020810190505b662386f26fc10000831061256c57662386f26fc10000838161256257612561613787565b5b0492506010810190505b6305f5e1008310612595576305f5e100838161258b5761258a613787565b5b0492506008810190505b61271083106125ba5761271083816125b0576125af613787565b5b0492506004810190505b606483106125dd57606483816125d3576125d2613787565b5b0492506002810190505b600a83106125ec576001810190505b80915050919050565b82805461260190612dc7565b90600052602060002090601f016020900481019282612623576000855561266a565b82601f1061263c57805160ff191683800117855561266a565b8280016001018555821561266a579182015b8281111561266957825182559160200191906001019061264e565b5b50905061267791906126bb565b5090565b50805461268790612dc7565b6000825580601f1061269957506126b8565b601f0160209004906000526020600020908101906126b791906126bb565b5b50565b5b808211156126d45760008160009055506001016126bc565b5090565b6000604051905090565b600080fd5b600080fd5b60007fffffffff0000000000000000000000000000000000000000000000000000000082169050919050565b612721816126ec565b811461272c57600080fd5b50565b60008135905061273e81612718565b92915050565b60006020828403121561275a576127596126e2565b5b60006127688482850161272f565b91505092915050565b60008115159050919050565b61278681612771565b82525050565b60006020820190506127a1600083018461277d565b92915050565b600081519050919050565b600082825260208201905092915050565b60005b838110156127e15780820151818401526020810190506127c6565b838111156127f0576000848401525b50505050565b6000601f19601f8301169050919050565b6000612812826127a7565b61281c81856127b2565b935061282c8185602086016127c3565b612835816127f6565b840191505092915050565b6000602082019050818103600083015261285a8184612807565b905092915050565b6000819050919050565b61287581612862565b811461288057600080fd5b50565b6000813590506128928161286c565b92915050565b6000602082840312156128ae576128ad6126e2565b5b60006128bc84828501612883565b91505092915050565b600073ffffffffffffffffffffffffffffffffffffffff82169050919050565b60006128f0826128c5565b9050919050565b612900816128e5565b82525050565b600060208201905061291b60008301846128f7565b92915050565b61292a816128e5565b811461293557600080fd5b50565b60008135905061294781612921565b92915050565b60008060408385031215612964576129636126e2565b5b600061297285828601612938565b925050602061298385828601612883565b9150509250929050565b61299681612862565b82525050565b60006020820190506129b1600083018461298d565b92915050565b6000806000606084860312156129d0576129cf6126e2565b5b60006129de86828701612938565b93505060206129ef86828701612938565b9250506040612a0086828701612883565b9150509250925092565b600060208284031215612a2057612a1f6126e2565b5b6000612a2e84828501612938565b91505092915050565b612a4081612771565b8114612a4b57600080fd5b50565b600081359050612a5d81612a37565b92915050565b60008060408385031215612a7a57612a796126e2565b5b6000612a8885828601612938565b9250506020612a9985828601612a4e565b9150509250929050565b600080fd5b600080fd5b7f4e487b7100000000000000000000000000000000000000000000000000000000600052604160045260246000fd5b612ae5826127f6565b810181811067ffffffffffffffff82111715612b0457612b03612aad565b5b80604052505050565b6000612b176126d8565b9050612b238282612adc565b919050565b600067ffffffffffffffff821115612b4357612b42612aad565b5b612b4c826127f6565b9050602081019050919050565b82818337600083830152505050565b6000612b7b612b7684612b28565b612b0d565b905082815260208101848484011115612b9757612b96612aa8565b5b612ba2848285612b59565b509392505050565b600082601f830112612bbf57612bbe612aa3565b5b8135612bcf848260208601612b68565b91505092915050565b60008060008060808587031215612bf257612bf16126e2565b5b6000612c0087828801612938565b9450506020612c1187828801612938565b9350506040612c2287828801612883565b925050606085013567ffffffffffffffff811115612c4357612c426126e7565b5b612c4f87828801612baa565b91505092959194509250565b600067ffffffffffffffff821115612c7657612c75612aad565b5b612c7f826127f6565b9050602081019050919050565b6000612c9f612c9a84612c5b565b612b0d565b905082815260208101848484011115612cbb57612cba612aa8565b5b612cc6848285612b59565b509392505050565b600082601f830112612ce357612ce2612aa3565b5b8135612cf3848260208601612c8c565b91505092915050565b60008060408385031215612d1357612d126126e2565b5b6000612d2185828601612938565b925050602083013567ffffffffffffffff811115612d4257612d416126e7565b5b612d4e85828601612cce565b9150509250929050565b60008060408385031215612d6f57612d6e6126e2565b5b6000612d7d85828601612938565b9250506020612d8e85828601612938565b9150509250929050565b7f4e487b7100000000000000000000000000000000000000000000000000000000600052602260045260246000fd5b60006002820490506001821680612ddf57607f821691505b60208210811415612df357612df2612d98565b5b50919050565b7f4552433732313a20617070726f76616c20746f2063757272656e74206f776e6560008201527f7200000000000000000000000000000000000000000000000000000000000000602082015250565b6000612e556021836127b2565b9150612e6082612df9565b604082019050919050565b60006020820190508181036000830152612e8481612e48565b9050919050565b7f4552433732313a20617070726f76652063616c6c6572206973206e6f7420746f60008201527f6b656e206f776e6572206f7220617070726f76656420666f7220616c6c000000602082015250565b6000612ee7603d836127b2565b9150612ef282612e8b565b604082019050919050565b60006020820190508181036000830152612f1681612eda565b9050919050565b7f4552433732313a2063616c6c6572206973206e6f7420746f6b656e206f776e6560008201527f72206f7220617070726f76656400000000000000000000000000000000000000602082015250565b6000612f79602d836127b2565b9150612f8482612f1d565b604082019050919050565b60006020820190508181036000830152612fa881612f6c565b9050919050565b7f455243373231456e756d657261626c653a206f776e657220696e646578206f7560008201527f74206f6620626f756e6473000000000000000000000000000000000000000000602082015250565b600061300b602b836127b2565b915061301682612faf565b604082019050919050565b6000602082019050818103600083015261303a81612ffe565b9050919050565b7f455243373231456e756d657261626c653a20676c6f62616c20696e646578206f60008201527f7574206f6620626f756e64730000000000000000000000000000000000000000602082015250565b600061309d602c836127b2565b91506130a882613041565b604082019050919050565b600060208201905081810360008301526130cc81613090565b9050919050565b7f4e487b7100000000000000000000000000000000000000000000000000000000600052603260045260246000fd5b7f4552433732313a20696e76616c696420746f6b656e2049440000000000000000600082015250565b60006131386018836127b2565b915061314382613102565b602082019050919050565b600060208201905081810360008301526131678161312b565b9050919050565b7f4552433732313a2061646472657373207a65726f206973206e6f74206120766160008201527f6c6964206f776e65720000000000000000000000000000000000000000000000602082015250565b60006131ca6029836127b2565b91506131d58261316e565b604082019050919050565b600060208201905081810360008301526131f9816131bd565b9050919050565b7f4f776e61626c653a206e6577206f776e657220697320746865207a65726f206160008201527f6464726573730000000000000000000000000000000000000000000000000000602082015250565b600061325c6026836127b2565b915061326782613200565b604082019050919050565b6000602082019050818103600083015261328b8161324f565b9050919050565b7f4552433732313a207472616e736665722066726f6d20696e636f72726563742060008201527f6f776e6572000000000000000000000000000000000000000000000000000000602082015250565b60006132ee6025836127b2565b91506132f982613292565b604082019050919050565b6000602082019050818103600083015261331d816132e1565b9050919050565b7f4552433732313a207472616e7366657220746f20746865207a65726f2061646460008201527f7265737300000000000000000000000000000000000000000000000000000000602082015250565b60006133806024836127b2565b915061338b82613324565b604082019050919050565b600060208201905081810360008301526133af81613373565b9050919050565b7f4f776e61626c653a2063616c6c6572206973206e6f7420746865206f776e6572600082015250565b60006133ec6020836127b2565b91506133f7826133b6565b602082019050919050565b6000602082019050818103600083015261341b816133df565b9050919050565b7f4552433732313a20617070726f766520746f2063616c6c657200000000000000600082015250565b60006134586019836127b2565b915061346382613422565b602082019050919050565b600060208201905081810360008301526134878161344b565b9050919050565b7f4552433732313a207472616e7366657220746f206e6f6e20455243373231526560008201527f63656976657220696d706c656d656e7465720000000000000000000000000000602082015250565b60006134ea6032836127b2565b91506134f58261348e565b604082019050919050565b60006020820190508181036000830152613519816134dd565b9050919050565b600081905092915050565b6000613536826127a7565b6135408185613520565b93506135508185602086016127c3565b80840191505092915050565b6000613568828561352b565b9150613574828461352b565b91508190509392505050565b7f45524337323155524953746f726167653a2055524920736574206f66206e6f6e60008201527f6578697374656e7420746f6b656e000000000000000000000000000000000000602082015250565b60006135dc602e836127b2565b91506135e782613580565b604082019050919050565b6000602082019050818103600083015261360b816135cf565b9050919050565b600081519050919050565b600082825260208201905092915050565b600061363982613612565b613643818561361d565b93506136538185602086016127c3565b61365c816127f6565b840191505092915050565b600060808201905061367c60008301876128f7565b61368960208301866128f7565b613696604083018561298d565b81810360608301526136a8818461362e565b905095945050505050565b6000815190506136c281612718565b92915050565b6000602082840312156136de576136dd6126e2565b5b60006136ec848285016136b3565b91505092915050565b7f455243373231456e756d657261626c653a20636f6e736563757469766520747260008201527f616e7366657273206e6f7420737570706f727465640000000000000000000000602082015250565b60006137516035836127b2565b915061375c826136f5565b604082019050919050565b6000602082019050818103600083015261378081613744565b9050919050565b7f4e487b7100000000000000000000000000000000000000000000000000000000600052601260045260246000fd5b7f4552433732313a206d696e7420746f20746865207a65726f2061646472657373600082015250565b60006137ec6020836127b2565b91506137f7826137b6565b602082019050919050565b6000602082019050818103600083015261381b816137df565b9050919050565b7f4552433732313a20746f6b656e20616c7265616479206d696e74656400000000600082015250565b6000613858601c836127b2565b915061386382613822565b602082019050919050565b600060208201905081810360008301526138878161384b565b9050919050565b7f4e487b7100000000000000000000000000000000000000000000000000000000600052601160045260246000fd5b60006138c882612862565b91506138d383612862565b9250828210156138e6576138e561388e565b5b828203905092915050565b60006138fc82612862565b915061390783612862565b9250827fffffffffffffffffffffffffffffffffffffffffffffffffffffffffffffffff0382111561393c5761393b61388e565b5b828201905092915050565b7f4e487b7100000000000000000000000000000000000000000000000000000000600052603160045260246000fdfe68747470733a2f2f697066732e696f2f697066732f516d587376466b765939464c33624e7778385031427170647a48517855674c42796f384650355971513339634b4e2fa264697066735822122043a1d744a37b1698db6706f816348e9593d40e863b71241179b7c6ecda93a3f964736f6c63430008090033",
  "linkReferences": {},
  "deployedLinkReferences": {}
}