{
  "_format": "hh-sol-artifact-1",
  "contractName": "NFTMarketplace",
  "sourceName": "contracts/NFTMarketplace.sol",
  "abi": [
    {
      "inputs": [],
      "stateMutability": "nonpayable",
      "type": "constructor"
    },
    {
      "inputs": [],
      "name": "africaPrintCount",
      "outputs": [
        {
          "internalType": "uint256",
          "name": "",
          "type": "uint256"
        }
      ],
      "stateMutability": "view",
      "type": "function"
    },
    {
      "inputs": [
        {
          "internalType": "uint256",
          "name": "",
          "type": "uint256"
        }
      ],
      "name": "africaPrints",
      "outputs": [
        {
          "internalType": "contract IERC721",
          "name": "nft",
          "type": "address"
        },
        {
          "internalType": "uint256",
          "name": "tokenId",
          "type": "uint256"
        },
        {
          "internalType": "uint256",
          "name": "price",
          "type": "uint256"
        },
        {
          "internalType": "address payable",
          "name": "seller",
          "type": "address"
        },
        {
          "internalType": "bool",
          "name": "sold",
          "type": "bool"
        },
        {
          "internalType": "bool",
          "name": "forSale",
          "type": "bool"
        },
        {
          "internalType": "bool",
          "name": "flagged",
          "type": "bool"
        },
        {
          "internalType": "uint256",
          "name": "rating",
          "type": "uint256"
        }
      ],
      "stateMutability": "view",
      "type": "function"
    },
    {
      "inputs": [
        {
          "internalType": "uint256",
          "name": "_index",
          "type": "uint256"
        }
      ],
      "name": "buyAfricaPrint",
      "outputs": [],
      "stateMutability": "payable",
      "type": "function"
    },
    {
      "inputs": [
        {
          "internalType": "uint256",
          "name": "_index",
          "type": "uint256"
        }
      ],
      "name": "getAfricaPrint",
      "outputs": [
        {
          "components": [
            {
              "internalType": "contract IERC721",
              "name": "nft",
              "type": "address"
            },
            {
              "internalType": "uint256",
              "name": "tokenId",
              "type": "uint256"
            },
            {
              "internalType": "uint256",
              "name": "price",
              "type": "uint256"
            },
            {
              "internalType": "address payable",
              "name": "seller",
              "type": "address"
            },
            {
              "internalType": "bool",
              "name": "sold",
              "type": "bool"
            },
            {
              "internalType": "bool",
              "name": "forSale",
              "type": "bool"
            },
            {
              "internalType": "bool",
              "name": "flagged",
              "type": "bool"
            },
            {
              "internalType": "uint256",
              "name": "rating",
              "type": "uint256"
            }
          ],
          "internalType": "struct NFTMarketplace.AfricaPrint",
          "name": "",
          "type": "tuple"
        }
      ],
      "stateMutability": "view",
      "type": "function"
    },
    {
      "inputs": [],
      "name": "getAfricaPrintCount",
      "outputs": [
        {
          "internalType": "uint256",
          "name": "",
          "type": "uint256"
        }
      ],
      "stateMutability": "view",
      "type": "function"
    },
    {
      "inputs": [
        {
          "internalType": "contract IERC721",
          "name": "_nft",
          "type": "address"
        },
        {
          "internalType": "uint256",
          "name": "_tokenId",
          "type": "uint256"
        },
        {
          "internalType": "uint256",
          "name": "_price",
          "type": "uint256"
        }
      ],
      "name": "listAfricaPrint",
      "outputs": [],
      "stateMutability": "nonpayable",
      "type": "function"
    },
    {
      "inputs": [
        {
          "internalType": "uint256",
          "name": "_africaPrintPrice",
          "type": "uint256"
        },
        {
          "internalType": "uint256",
          "name": "_index",
          "type": "uint256"
        }
      ],
      "name": "modifyAfricaPrintPrice",
      "outputs": [],
      "stateMutability": "payable",
      "type": "function"
    },
    {
      "inputs": [
        {
          "internalType": "address",
          "name": "",
          "type": "address"
        },
        {
          "internalType": "address",
          "name": "",
          "type": "address"
        },
        {
          "internalType": "uint256",
          "name": "",
          "type": "uint256"
        },
        {
          "internalType": "bytes",
          "name": "",
          "type": "bytes"
        }
      ],
      "name": "onERC721Received",
      "outputs": [
        {
          "internalType": "bytes4",
          "name": "",
          "type": "bytes4"
        }
      ],
      "stateMutability": "pure",
      "type": "function"
    },
    {
      "inputs": [
        {
          "internalType": "uint256",
          "name": "_index",
          "type": "uint256"
        },
        {
          "internalType": "uint256",
          "name": "_rating",
          "type": "uint256"
        }
      ],
      "name": "rateAfricaPrint",
      "outputs": [],
      "stateMutability": "nonpayable",
      "type": "function"
    },
    {
      "inputs": [
        {
          "internalType": "uint256",
          "name": "_index",
          "type": "uint256"
        }
      ],
      "name": "toggleFlagged",
      "outputs": [],
      "stateMutability": "nonpayable",
      "type": "function"
    },
    {
      "inputs": [
        {
          "internalType": "uint256",
          "name": "_index",
          "type": "uint256"
        }
      ],
      "name": "toggleForSale",
      "outputs": [],
      "stateMutability": "nonpayable",
      "type": "function"
    }
  ],
  "bytecode": "0x60806040526000805534801561001457600080fd5b5033600260006101000a81548173ffffffffffffffffffffffffffffffffffffffff021916908373ffffffffffffffffffffffffffffffffffffffff16021790555061216e806100656000396000f3fe60806040526004361061009c5760003560e01c8063babf0ea311610064578063babf0ea314610179578063c520c1f9146101a2578063c52f4c2f146101cb578063c8857ebc146101e7578063e10494e314610210578063fd873bbc1461024d5761009c565b8063150b7a02146100a157806318a56e1d146100de57806356235f81146101095780639e69de7114610125578063a32018b914610150575b600080fd5b3480156100ad57600080fd5b506100c860048036038101906100c391906113d2565b610291565b6040516100d59190611495565b60405180910390f35b3480156100ea57600080fd5b506100f36102a6565b60405161010091906114bf565b60405180910390f35b610123600480360381019061011e91906114da565b6102af565b005b34801561013157600080fd5b5061013a61041b565b60405161014791906114bf565b60405180910390f35b34801561015c57600080fd5b506101776004803603810190610172919061151a565b610421565b005b34801561018557600080fd5b506101a0600480360381019061019b919061151a565b6105d2565b005b3480156101ae57600080fd5b506101c960048036038101906101c49190611585565b6106c5565b005b6101e560048036038101906101e0919061151a565b610a1c565b005b3480156101f357600080fd5b5061020e600480360381019061020991906114da565b610f5d565b005b34801561021c57600080fd5b506102376004803603810190610232919061151a565b611060565b6040516102449190611724565b60405180910390f35b34801561025957600080fd5b50610274600480360381019061026f919061151a565b6111a9565b60405161028898979695949392919061176d565b60405180910390f35b600063150b7a0260e01b905095945050505050565b60008054905090565b806001600082815260200190815260200160002060030160169054906101000a900460ff1615610314576040517f08c379a000000000000000000000000000000000000000000000000000000000815260040161030b90611848565b60405180910390fd5b3373ffffffffffffffffffffffffffffffffffffffff166001600084815260200190815260200160002060030160009054906101000a900473ffffffffffffffffffffffffffffffffffffffff1673ffffffffffffffffffffffffffffffffffffffff16146103b8576040517f08c379a00000000000000000000000000000000000000000000000000000000081526004016103af906118da565b60405180910390fd5b600083116103fb576040517f08c379a00000000000000000000000000000000000000000000000000000000081526004016103f290611946565b60405180910390fd5b826001600084815260200190815260200160002060020181905550505050565b60005481565b806001600082815260200190815260200160002060030160169054906101000a900460ff1615610486576040517f08c379a000000000000000000000000000000000000000000000000000000000815260040161047d90611848565b60405180910390fd5b6000600160008481526020019081526020016000209050600073ffffffffffffffffffffffffffffffffffffffff163373ffffffffffffffffffffffffffffffffffffffff16141561050d576040517f08c379a0000000000000000000000000000000000000000000000000000000008152600401610504906119b2565b60405180910390fd5b3373ffffffffffffffffffffffffffffffffffffffff168160030160009054906101000a900473ffffffffffffffffffffffffffffffffffffffff1673ffffffffffffffffffffffffffffffffffffffff161461059f576040517f08c379a000000000000000000000000000000000000000000000000000000000815260040161059690611a44565b60405180910390fd5b8060030160159054906101000a900460ff16158160030160156101000a81548160ff021916908315150217905550505050565b600260009054906101000a900473ffffffffffffffffffffffffffffffffffffffff1673ffffffffffffffffffffffffffffffffffffffff163373ffffffffffffffffffffffffffffffffffffffff1614610662576040517f08c379a000000000000000000000000000000000000000000000000000000000815260040161065990611ad6565b60405180910390fd5b600081118015610673575060005481105b61067c57600080fd5b60006001600083815260200190815260200160002090508060030160169054906101000a900460ff16158160030160166101000a81548160ff0219169083151502179055505050565b60008111610708576040517f08c379a00000000000000000000000000000000000000000000000000000000081526004016106ff90611b68565b60405180910390fd5b8273ffffffffffffffffffffffffffffffffffffffff166342842e0e3330856040518463ffffffff1660e01b815260040161074593929190611b97565b600060405180830381600087803b15801561075f57600080fd5b505af1158015610773573d6000803e3d6000fd5b505050503073ffffffffffffffffffffffffffffffffffffffff168373ffffffffffffffffffffffffffffffffffffffff16636352211e846040518263ffffffff1660e01b81526004016107c791906114bf565b60206040518083038186803b1580156107df57600080fd5b505afa1580156107f3573d6000803e3d6000fd5b505050506040513d601f19601f820116820180604052508101906108179190611be3565b73ffffffffffffffffffffffffffffffffffffffff161461086d576040517f08c379a000000000000000000000000000000000000000000000000000000000815260040161086490611c82565b60405180910390fd5b6040518061010001604052808473ffffffffffffffffffffffffffffffffffffffff1681526020018381526020018281526020013373ffffffffffffffffffffffffffffffffffffffff1681526020016000151581526020016001151581526020016000151581526020016003815250600160008054815260200190815260200160002060008201518160000160006101000a81548173ffffffffffffffffffffffffffffffffffffffff021916908373ffffffffffffffffffffffffffffffffffffffff160217905550602082015181600101556040820151816002015560608201518160030160006101000a81548173ffffffffffffffffffffffffffffffffffffffff021916908373ffffffffffffffffffffffffffffffffffffffff16021790555060808201518160030160146101000a81548160ff02191690831515021790555060a08201518160030160156101000a81548160ff02191690831515021790555060c08201518160030160166101000a81548160ff02191690831515021790555060e08201518160040155905050600080815480929190610a1290611cd1565b9190505550505050565b806001600082815260200190815260200160002060030160169054906101000a900460ff1615610a81576040517f08c379a0000000000000000000000000000000000000000000000000000000008152600401610a7890611848565b60405180910390fd5b6000600160008481526020019081526020016000209050600115158160030160159054906101000a900460ff16151514610af0576040517f08c379a0000000000000000000000000000000000000000000000000000000008152600401610ae790611d8c565b60405180910390fd5b60008310158015610b02575060005483105b610b41576040517f08c379a0000000000000000000000000000000000000000000000000000000008152600401610b3890611e1e565b60405180910390fd5b80600201543414610b87576040517f08c379a0000000000000000000000000000000000000000000000000000000008152600401610b7e90611eb0565b60405180910390fd5b8060030160149054906101000a900460ff1615610bd9576040517f08c379a0000000000000000000000000000000000000000000000000000000008152600401610bd090611f42565b60405180910390fd5b3373ffffffffffffffffffffffffffffffffffffffff168160030160009054906101000a900473ffffffffffffffffffffffffffffffffffffffff1673ffffffffffffffffffffffffffffffffffffffff161415610c6c576040517f08c379a0000000000000000000000000000000000000000000000000000000008152600401610c6390611fd4565b60405180910390fd5b60008160030160009054906101000a900473ffffffffffffffffffffffffffffffffffffffff169050338260030160006101000a81548173ffffffffffffffffffffffffffffffffffffffff021916908373ffffffffffffffffffffffffffffffffffffffff16021790555060018260030160146101000a81548160ff0219169083151502179055508160000160009054906101000a900473ffffffffffffffffffffffffffffffffffffffff1673ffffffffffffffffffffffffffffffffffffffff166342842e0e303385600101546040518463ffffffff1660e01b8152600401610d5a93929190611b97565b600060405180830381600087803b158015610d7457600080fd5b505af1158015610d88573d6000803e3d6000fd5b5050505060008173ffffffffffffffffffffffffffffffffffffffff1634604051610db290612025565b60006040518083038185875af1925050503d8060008114610def576040519150601f19603f3d011682016040523d82523d6000602084013e610df4565b606091505b5050905080610e38576040517f08c379a0000000000000000000000000000000000000000000000000000000008152600401610e2f906120ac565b60405180910390fd5b3373ffffffffffffffffffffffffffffffffffffffff168360000160009054906101000a900473ffffffffffffffffffffffffffffffffffffffff1673ffffffffffffffffffffffffffffffffffffffff16636352211e85600101546040518263ffffffff1660e01b8152600401610eb091906114bf565b60206040518083038186803b158015610ec857600080fd5b505afa158015610edc573d6000803e3d6000fd5b505050506040513d601f19601f82011682018060405250810190610f009190611be3565b73ffffffffffffffffffffffffffffffffffffffff1614610f56576040517f08c379a0000000000000000000000000000000000000000000000000000000008152600401610f4d90612118565b60405180910390fd5b5050505050565b600260009054906101000a900473ffffffffffffffffffffffffffffffffffffffff1673ffffffffffffffffffffffffffffffffffffffff163373ffffffffffffffffffffffffffffffffffffffff1614610fed576040517f08c379a0000000000000000000000000000000000000000000000000000000008152600401610fe490611ad6565b60405180910390fd5b600073ffffffffffffffffffffffffffffffffffffffff163373ffffffffffffffffffffffffffffffffffffffff16141561102757600080fd5b600082118015611038575060005482105b61104157600080fd5b8060016000848152602001908152602001600020600401819055505050565b611068611258565b60016000838152602001908152602001600020604051806101000160405290816000820160009054906101000a900473ffffffffffffffffffffffffffffffffffffffff1673ffffffffffffffffffffffffffffffffffffffff1673ffffffffffffffffffffffffffffffffffffffff16815260200160018201548152602001600282015481526020016003820160009054906101000a900473ffffffffffffffffffffffffffffffffffffffff1673ffffffffffffffffffffffffffffffffffffffff1673ffffffffffffffffffffffffffffffffffffffff1681526020016003820160149054906101000a900460ff161515151581526020016003820160159054906101000a900460ff161515151581526020016003820160169054906101000a900460ff161515151581526020016004820154815250509050919050565b60016020528060005260406000206000915090508060000160009054906101000a900473ffffffffffffffffffffffffffffffffffffffff16908060010154908060020154908060030160009054906101000a900473ffffffffffffffffffffffffffffffffffffffff16908060030160149054906101000a900460ff16908060030160159054906101000a900460ff16908060030160169054906101000a900460ff16908060040154905088565b604051806101000160405280600073ffffffffffffffffffffffffffffffffffffffff1681526020016000815260200160008152602001600073ffffffffffffffffffffffffffffffffffffffff168152602001600015158152602001600015158152602001600015158152602001600081525090565b600080fd5b600080fd5b600073ffffffffffffffffffffffffffffffffffffffff82169050919050565b6000611304826112d9565b9050919050565b611314816112f9565b811461131f57600080fd5b50565b6000813590506113318161130b565b92915050565b6000819050919050565b61134a81611337565b811461135557600080fd5b50565b60008135905061136781611341565b92915050565b600080fd5b600080fd5b600080fd5b60008083601f8401126113925761139161136d565b5b8235905067ffffffffffffffff8111156113af576113ae611372565b5b6020830191508360018202830111156113cb576113ca611377565b5b9250929050565b6000806000806000608086880312156113ee576113ed6112cf565b5b60006113fc88828901611322565b955050602061140d88828901611322565b945050604061141e88828901611358565b935050606086013567ffffffffffffffff81111561143f5761143e6112d4565b5b61144b8882890161137c565b92509250509295509295909350565b60007fffffffff0000000000000000000000000000000000000000000000000000000082169050919050565b61148f8161145a565b82525050565b60006020820190506114aa6000830184611486565b92915050565b6114b981611337565b82525050565b60006020820190506114d460008301846114b0565b92915050565b600080604083850312156114f1576114f06112cf565b5b60006114ff85828601611358565b925050602061151085828601611358565b9150509250929050565b6000602082840312156115305761152f6112cf565b5b600061153e84828501611358565b91505092915050565b6000611552826112f9565b9050919050565b61156281611547565b811461156d57600080fd5b50565b60008135905061157f81611559565b92915050565b60008060006060848603121561159e5761159d6112cf565b5b60006115ac86828701611570565b93505060206115bd86828701611358565b92505060406115ce86828701611358565b9150509250925092565b6000819050919050565b60006115fd6115f86115f3846112d9565b6115d8565b6112d9565b9050919050565b600061160f826115e2565b9050919050565b600061162182611604565b9050919050565b61163181611616565b82525050565b61164081611337565b82525050565b6000611651826112d9565b9050919050565b61166181611646565b82525050565b60008115159050919050565b61167c81611667565b82525050565b610100820160008201516116996000850182611628565b5060208201516116ac6020850182611637565b5060408201516116bf6040850182611637565b5060608201516116d26060850182611658565b5060808201516116e56080850182611673565b5060a08201516116f860a0850182611673565b5060c082015161170b60c0850182611673565b5060e082015161171e60e0850182611637565b50505050565b60006101008201905061173a6000830184611682565b92915050565b61174981611616565b82525050565b61175881611646565b82525050565b61176781611667565b82525050565b600061010082019050611783600083018b611740565b611790602083018a6114b0565b61179d60408301896114b0565b6117aa606083018861174f565b6117b7608083018761175e565b6117c460a083018661175e565b6117d160c083018561175e565b6117de60e08301846114b0565b9998505050505050505050565b600082825260208201905092915050565b7f7468697320206166726963617072696e7420697320666c616767656400000000600082015250565b6000611832601c836117eb565b915061183d826117fc565b602082019050919050565b6000602082019050818103600083015261186181611825565b9050919050565b7f4e46544d61726b6574706c6163653a2043616e277420706572666f726d20747260008201527f616e73616374696f6e0000000000000000000000000000000000000000000000602082015250565b60006118c46029836117eb565b91506118cf82611868565b604082019050919050565b600060208201905081810360008301526118f3816118b7565b9050919050565b7f456e74657220612076616c6964206e6577207072696365000000000000000000600082015250565b60006119306017836117eb565b915061193b826118fa565b602082019050919050565b6000602082019050818103600083015261195f81611923565b9050919050565b7f496e76616c69642063616c6c6572000000000000000000000000000000000000600082015250565b600061199c600e836117eb565b91506119a782611966565b602082019050919050565b600060208201905081810360008301526119cb8161198f565b9050919050565b7f4f6e6c7920746865206f776e65722063616e20706572666f726d20746869732060008201527f616374696f6e0000000000000000000000000000000000000000000000000000602082015250565b6000611a2e6026836117eb565b9150611a39826119d2565b604082019050919050565b60006020820190508181036000830152611a5d81611a21565b9050919050565b7f4f6e6c792074686520636f6e7472616374206f776e65722063616e207065726660008201527f6f726d207468697320616374696f6e0000000000000000000000000000000000602082015250565b6000611ac0602f836117eb565b9150611acb82611a64565b604082019050919050565b60006020820190508181036000830152611aef81611ab3565b9050919050565b7f4e46544d61726b6574706c6163653a2050726963652073686f756c642062652060008201527f61626f7665207a65726f00000000000000000000000000000000000000000000602082015250565b6000611b52602a836117eb565b9150611b5d82611af6565b604082019050919050565b60006020820190508181036000830152611b8181611b45565b9050919050565b611b91816112f9565b82525050565b6000606082019050611bac6000830186611b88565b611bb96020830185611b88565b611bc660408301846114b0565b949350505050565b600081519050611bdd8161130b565b92915050565b600060208284031215611bf957611bf86112cf565b5b6000611c0784828501611bce565b91505092915050565b7f5472616e73666572206f66204e465420746f206d61726b6574706c616365206660008201527f61696c6564000000000000000000000000000000000000000000000000000000602082015250565b6000611c6c6025836117eb565b9150611c7782611c10565b604082019050919050565b60006020820190508181036000830152611c9b81611c5f565b9050919050565b7f4e487b7100000000000000000000000000000000000000000000000000000000600052601160045260246000fd5b6000611cdc82611337565b91507fffffffffffffffffffffffffffffffffffffffffffffffffffffffffffffffff821415611d0f57611d0e611ca2565b5b600182019050919050565b7f7468697320206166726963617072696e74206973206e6f7420666f722073616c60008201527f6500000000000000000000000000000000000000000000000000000000000000602082015250565b6000611d766021836117eb565b9150611d8182611d1a565b604082019050919050565b60006020820190508181036000830152611da581611d69565b9050919050565b7f4e46544d61726b6574706c6163653a206166726963617072696e7420646f657360008201527f6e27742065786973740000000000000000000000000000000000000000000000602082015250565b6000611e086029836117eb565b9150611e1382611dac565b604082019050919050565b60006020820190508181036000830152611e3781611dfb565b9050919050565b7f4e46544d61726b6574706c6163653a20596f75206e65656420746f206d61746360008201527f68207468652073656c6c696e6720707269636500000000000000000000000000602082015250565b6000611e9a6033836117eb565b9150611ea582611e3e565b604082019050919050565b60006020820190508181036000830152611ec981611e8d565b9050919050565b7f4e46544d61726b6574706c6163653a206166726963617072696e7420616c726560008201527f61647920736f6c64000000000000000000000000000000000000000000000000602082015250565b6000611f2c6028836117eb565b9150611f3782611ed0565b604082019050919050565b60006020820190508181036000830152611f5b81611f1f565b9050919050565b7f596f752063616e27742062757920796f7572206f776e2061667269636170726960008201527f6e74000000000000000000000000000000000000000000000000000000000000602082015250565b6000611fbe6022836117eb565b9150611fc982611f62565b604082019050919050565b60006020820190508181036000830152611fed81611fb1565b9050919050565b600081905092915050565b50565b600061200f600083611ff4565b915061201a82611fff565b600082019050919050565b600061203082612002565b9150819050919050565b7f5472616e73666572206f66207061796d656e7420746f2073656c6c657220666160008201527f696c656400000000000000000000000000000000000000000000000000000000602082015250565b60006120966024836117eb565b91506120a18261203a565b604082019050919050565b600060208201905081810360008301526120c581612089565b9050919050565b7f5472616e73666572206f66204e465420746f206275796572206661696c656400600082015250565b6000612102601f836117eb565b915061210d826120cc565b602082019050919050565b60006020820190508181036000830152612131816120f5565b905091905056fea264697066735822122030aef4d0adef3b2e5b63acc5f26d99b7ef911c278fbdefe31b237831d28df34f64736f6c63430008090033",
  "linkReferences": {},
  "deployedLinkReferences": {}
}